{
  "address": "0x4FD0D835aE7db4D0e77FFd1eBD261f8397bEd2d4",
  "abi": [
    {
      "inputs": [
        {
          "internalType": "uint256",
          "name": "_lockTime",
          "type": "uint256"
        },
        {
          "internalType": "address",
          "name": "dataFeedAddr",
          "type": "address"
        }
      ],
      "stateMutability": "nonpayable",
      "type": "constructor"
    },
    {
      "inputs": [],
      "name": "dataFeed",
      "outputs": [
        {
          "internalType": "contract AggregatorV3Interface",
          "name": "",
          "type": "address"
        }
      ],
      "stateMutability": "view",
      "type": "function"
    },
    {
      "inputs": [],
      "name": "fund",
      "outputs": [],
      "stateMutability": "payable",
      "type": "function"
    },
    {
      "inputs": [
        {
          "internalType": "address",
          "name": "",
          "type": "address"
        }
      ],
      "name": "fundersToAmount",
      "outputs": [
        {
          "internalType": "uint256",
          "name": "",
          "type": "uint256"
        }
      ],
      "stateMutability": "view",
      "type": "function"
    },
    {
      "inputs": [],
      "name": "getChainlinkDataFeedLatestAnswer",
      "outputs": [
        {
          "internalType": "int256",
          "name": "",
          "type": "int256"
        }
      ],
      "stateMutability": "view",
      "type": "function"
    },
    {
      "inputs": [],
      "name": "getFund",
      "outputs": [],
      "stateMutability": "nonpayable",
      "type": "function"
    },
    {
      "inputs": [],
      "name": "getFundSuccess",
      "outputs": [
        {
          "internalType": "bool",
          "name": "",
          "type": "bool"
        }
      ],
      "stateMutability": "view",
      "type": "function"
    },
    {
      "inputs": [],
      "name": "owner",
      "outputs": [
        {
          "internalType": "address",
          "name": "",
          "type": "address"
        }
      ],
      "stateMutability": "view",
      "type": "function"
    },
    {
      "inputs": [],
      "name": "refund",
      "outputs": [],
      "stateMutability": "nonpayable",
      "type": "function"
    },
    {
      "inputs": [
        {
          "internalType": "address",
          "name": "_erc20Addr",
          "type": "address"
        }
      ],
      "name": "setErc20Addr",
      "outputs": [],
      "stateMutability": "nonpayable",
      "type": "function"
    },
    {
      "inputs": [
        {
          "internalType": "address",
          "name": "funder",
          "type": "address"
        },
        {
          "internalType": "uint256",
          "name": "amountToUpdate",
          "type": "uint256"
        }
      ],
      "name": "setFunderToAmout",
      "outputs": [],
      "stateMutability": "nonpayable",
      "type": "function"
    },
    {
      "inputs": [
        {
          "internalType": "address",
          "name": "newOwner",
          "type": "address"
        }
      ],
      "name": "transferOwnership",
      "outputs": [],
      "stateMutability": "nonpayable",
      "type": "function"
    }
  ],
  "transactionHash": "0x86abc27db353273eb1f916a41b599d6d016f634a682755dbd72fc197472484eb",
  "args": [
    180,
    "0x694AA1769357215DE4FAC081bf1f309aDC325306"
  ],
  "numDeployments": 1,
  "solcInputHash": "b68fd71197b8fca163ec3ca127d78742",
  "bytecode": "0x60806040526000600560146101000a81548160ff02191690831515021790555034801561002b57600080fd5b506040516115bc3803806115bc833981810160405281019061004d919061017d565b80600160006101000a81548173ffffffffffffffffffffffffffffffffffffffff021916908373ffffffffffffffffffffffffffffffffffffffff16021790555033600260006101000a81548173ffffffffffffffffffffffffffffffffffffffff021916908373ffffffffffffffffffffffffffffffffffffffff160217905550426003819055508160048190555050506101bd565b600080fd5b6000819050919050565b6100fc816100e9565b811461010757600080fd5b50565b600081519050610119816100f3565b92915050565b600073ffffffffffffffffffffffffffffffffffffffff82169050919050565b600061014a8261011f565b9050919050565b61015a8161013f565b811461016557600080fd5b50565b60008151905061017781610151565b92915050565b60008060408385031215610194576101936100e4565b5b60006101a28582860161010a565b92505060206101b385828601610168565b9150509250929050565b6113f0806101cc6000396000f3fe60806040526004361061009c5760003560e01c80639e42ff90116100645780639e42ff901461014c5780639f883a0514610177578063b60d4288146101b4578063bea4dfb5146101be578063da4658e0146101e9578063f2fde38b146102145761009c565b806313ffff01146100a1578063590e1ae3146100ca5780638ad72ca4146100e15780638da5cb5b1461010a5780638edd6eb614610135575b600080fd5b3480156100ad57600080fd5b506100c860048036038101906100c39190610b6d565b61023d565b005b3480156100d657600080fd5b506100df610311565b005b3480156100ed57600080fd5b5061010860048036038101906101039190610bd0565b61052c565b005b34801561011657600080fd5b5061011f610603565b60405161012c9190610c1f565b60405180910390f35b34801561014157600080fd5b5061014a610629565b005b34801561015857600080fd5b5061016161082b565b60405161016e9190610c99565b60405180910390f35b34801561018357600080fd5b5061019e60048036038101906101999190610b6d565b610851565b6040516101ab9190610cc3565b60405180910390f35b6101bc610869565b005b3480156101ca57600080fd5b506101d3610952565b6040516101e09190610cf7565b60405180910390f35b3480156101f557600080fd5b506101fe6109f3565b60405161020b9190610d2d565b60405180910390f35b34801561022057600080fd5b5061023b60048036038101906102369190610b6d565b610a06565b005b600260009054906101000a900473ffffffffffffffffffffffffffffffffffffffff1673ffffffffffffffffffffffffffffffffffffffff163373ffffffffffffffffffffffffffffffffffffffff16146102cd576040517f08c379a00000000000000000000000000000000000000000000000000000000081526004016102c490610dcb565b60405180910390fd5b80600560006101000a81548173ffffffffffffffffffffffffffffffffffffffff021916908373ffffffffffffffffffffffffffffffffffffffff16021790555050565b6004546003546103219190610e1a565b421015610363576040517f08c379a000000000000000000000000000000000000000000000000000000000815260040161035a90610e9a565b60405180910390fd5b683635c9adc5dea0000061037647610ada565b106103b6576040517f08c379a00000000000000000000000000000000000000000000000000000000081526004016103ad90610f06565b60405180910390fd5b60008060003373ffffffffffffffffffffffffffffffffffffffff1673ffffffffffffffffffffffffffffffffffffffff1681526020019081526020016000205403610437576040517f08c379a000000000000000000000000000000000000000000000000000000000815260040161042e90610f72565b60405180910390fd5b60003373ffffffffffffffffffffffffffffffffffffffff164760405161045d90610fc3565b60006040518083038185875af1925050503d806000811461049a576040519150601f19603f3d011682016040523d82523d6000602084013e61049f565b606091505b505080915050806104e5576040517f08c379a00000000000000000000000000000000000000000000000000000000081526004016104dc90611024565b60405180910390fd5b60008060003373ffffffffffffffffffffffffffffffffffffffff1673ffffffffffffffffffffffffffffffffffffffff1681526020019081526020016000208190555050565b3373ffffffffffffffffffffffffffffffffffffffff16600560009054906101000a900473ffffffffffffffffffffffffffffffffffffffff1673ffffffffffffffffffffffffffffffffffffffff16146105bc576040517f08c379a00000000000000000000000000000000000000000000000000000000081526004016105b3906110b6565b60405180910390fd5b806000808473ffffffffffffffffffffffffffffffffffffffff1673ffffffffffffffffffffffffffffffffffffffff168152602001908152602001600020819055505050565b600260009054906101000a900473ffffffffffffffffffffffffffffffffffffffff1681565b6004546003546106399190610e1a565b42101561067b576040517f08c379a000000000000000000000000000000000000000000000000000000000815260040161067290610e9a565b60405180910390fd5b600260009054906101000a900473ffffffffffffffffffffffffffffffffffffffff1673ffffffffffffffffffffffffffffffffffffffff163373ffffffffffffffffffffffffffffffffffffffff161461070b576040517f08c379a000000000000000000000000000000000000000000000000000000000815260040161070290610dcb565b60405180910390fd5b683635c9adc5dea0000061071e47610ada565b101561075f576040517f08c379a000000000000000000000000000000000000000000000000000000000815260040161075690611122565b60405180910390fd5b60003373ffffffffffffffffffffffffffffffffffffffff164760405161078590610fc3565b60006040518083038185875af1925050503d80600081146107c2576040519150601f19603f3d011682016040523d82523d6000602084013e6107c7565b606091505b5050809150508061080d576040517f08c379a000000000000000000000000000000000000000000000000000000000815260040161080490611024565b60405180910390fd5b6001600560146101000a81548160ff02191690831515021790555050565b600160009054906101000a900473ffffffffffffffffffffffffffffffffffffffff1681565b60006020528060005260406000206000915090505481565b670de0b6b3a764000061087b34610ada565b10156108bc576040517f08c379a00000000000000000000000000000000000000000000000000000000081526004016108b39061118e565b60405180910390fd5b6004546003546108cc9190610e1a565b421061090d576040517f08c379a0000000000000000000000000000000000000000000000000000000008152600401610904906111fa565b60405180910390fd5b346000803373ffffffffffffffffffffffffffffffffffffffff1673ffffffffffffffffffffffffffffffffffffffff16815260200190815260200160002081905550565b600080600160009054906101000a900473ffffffffffffffffffffffffffffffffffffffff1673ffffffffffffffffffffffffffffffffffffffff1663feaf968c6040518163ffffffff1660e01b815260040160a060405180830381865afa1580156109c2573d6000803e3d6000fd5b505050506040513d601f19601f820116820180604052508101906109e6919061129d565b5050509150508091505090565b600560149054906101000a900460ff1681565b600260009054906101000a900473ffffffffffffffffffffffffffffffffffffffff1673ffffffffffffffffffffffffffffffffffffffff163373ffffffffffffffffffffffffffffffffffffffff1614610a96576040517f08c379a0000000000000000000000000000000000000000000000000000000008152600401610a8d90610dcb565b60405180910390fd5b80600260006101000a81548173ffffffffffffffffffffffffffffffffffffffff021916908373ffffffffffffffffffffffffffffffffffffffff16021790555050565b600080610ae5610952565b90506305f5e1008184610af89190611318565b610b029190611389565b915050919050565b600080fd5b600073ffffffffffffffffffffffffffffffffffffffff82169050919050565b6000610b3a82610b0f565b9050919050565b610b4a81610b2f565b8114610b5557600080fd5b50565b600081359050610b6781610b41565b92915050565b600060208284031215610b8357610b82610b0a565b5b6000610b9184828501610b58565b91505092915050565b6000819050919050565b610bad81610b9a565b8114610bb857600080fd5b50565b600081359050610bca81610ba4565b92915050565b60008060408385031215610be757610be6610b0a565b5b6000610bf585828601610b58565b9250506020610c0685828601610bbb565b9150509250929050565b610c1981610b2f565b82525050565b6000602082019050610c346000830184610c10565b92915050565b6000819050919050565b6000610c5f610c5a610c5584610b0f565b610c3a565b610b0f565b9050919050565b6000610c7182610c44565b9050919050565b6000610c8382610c66565b9050919050565b610c9381610c78565b82525050565b6000602082019050610cae6000830184610c8a565b92915050565b610cbd81610b9a565b82525050565b6000602082019050610cd86000830184610cb4565b92915050565b6000819050919050565b610cf181610cde565b82525050565b6000602082019050610d0c6000830184610ce8565b92915050565b60008115159050919050565b610d2781610d12565b82525050565b6000602082019050610d426000830184610d1e565b92915050565b600082825260208201905092915050565b7f746869732066756e6374696f6e2063616e206f6e6c792063616c6c656420627960008201527f206f776e65722e00000000000000000000000000000000000000000000000000602082015250565b6000610db5602783610d48565b9150610dc082610d59565b604082019050919050565b60006020820190508181036000830152610de481610da8565b9050919050565b7f4e487b7100000000000000000000000000000000000000000000000000000000600052601160045260246000fd5b6000610e2582610b9a565b9150610e3083610b9a565b9250828201905080821115610e4857610e47610deb565b5b92915050565b7f77696e646f77206973206e6f7420636c6f736564000000000000000000000000600082015250565b6000610e84601483610d48565b9150610e8f82610e4e565b602082019050919050565b60006020820190508181036000830152610eb381610e77565b9050919050565b7f54617267657420697320726561636865642e0000000000000000000000000000600082015250565b6000610ef0601283610d48565b9150610efb82610eba565b602082019050919050565b60006020820190508181036000830152610f1f81610ee3565b9050919050565b7f5468657265206973206e6f2066756e6420666f7220796f752e00000000000000600082015250565b6000610f5c601983610d48565b9150610f6782610f26565b602082019050919050565b60006020820190508181036000830152610f8b81610f4f565b9050919050565b600081905092915050565b50565b6000610fad600083610f92565b9150610fb882610f9d565b600082019050919050565b6000610fce82610fa0565b9150819050919050565b7f7478206661696c65640000000000000000000000000000000000000000000000600082015250565b600061100e600983610d48565b915061101982610fd8565b602082019050919050565b6000602082019050818103600083015261103d81611001565b9050919050565b7f596f7520646f206e6f742068617665207065726d657373696f6e20746f20636160008201527f6c6c20746869732066756e6374696f6e202e0000000000000000000000000000602082015250565b60006110a0603283610d48565b91506110ab82611044565b604082019050919050565b600060208201905081810360008301526110cf81611093565b9050919050565b7f546172676574206973206e6f7420726561636865642e00000000000000000000600082015250565b600061110c601683610d48565b9150611117826110d6565b602082019050919050565b6000602082019050818103600083015261113b816110ff565b9050919050565b7f53656e64206d6f7265204554482e000000000000000000000000000000000000600082015250565b6000611178600e83610d48565b915061118382611142565b602082019050919050565b600060208201905081810360008301526111a78161116b565b9050919050565b7f77696e646f7720697320636c6f73656400000000000000000000000000000000600082015250565b60006111e4601083610d48565b91506111ef826111ae565b602082019050919050565b60006020820190508181036000830152611213816111d7565b9050919050565b600069ffffffffffffffffffff82169050919050565b6112398161121a565b811461124457600080fd5b50565b60008151905061125681611230565b92915050565b61126581610cde565b811461127057600080fd5b50565b6000815190506112828161125c565b92915050565b60008151905061129781610ba4565b92915050565b600080600080600060a086880312156112b9576112b8610b0a565b5b60006112c788828901611247565b95505060206112d888828901611273565b94505060406112e988828901611288565b93505060606112fa88828901611288565b925050608061130b88828901611247565b9150509295509295909350565b600061132382610b9a565b915061132e83610b9a565b925082820261133c81610b9a565b9150828204841483151761135357611352610deb565b5b5092915050565b7f4e487b7100000000000000000000000000000000000000000000000000000000600052601260045260246000fd5b600061139482610b9a565b915061139f83610b9a565b9250826113af576113ae61135a565b5b82820490509291505056fea2646970667358221220a594531016a9b20ce0932213cebc447a89113c832f4d5067407f421da016ba6164736f6c634300081b0033",
  "devdoc": {
    "kind": "dev",
    "methods": {},
    "version": 1
  },
  "userdoc": {
    "kind": "user",
    "methods": {},
    "version": 1
  },
  "storageLayout": {
    "storage": [
      {
        "astId": 53,
        "contract": "contracts/FundMe.sol:FundMe",
        "label": "fundersToAmount",
        "offset": 0,
        "slot": "0",
        "type": "t_mapping(t_address,t_uint256)"
      },
      {
        "astId": 63,
        "contract": "contracts/FundMe.sol:FundMe",
        "label": "dataFeed",
        "offset": 0,
        "slot": "1",
        "type": "t_contract(AggregatorV3Interface)45"
      },
      {
        "astId": 72,
        "contract": "contracts/FundMe.sol:FundMe",
        "label": "owner",
        "offset": 0,
        "slot": "2",
        "type": "t_address"
      },
      {
        "astId": 74,
        "contract": "contracts/FundMe.sol:FundMe",
        "label": "deploymentTimestamp",
        "offset": 0,
        "slot": "3",
        "type": "t_uint256"
      },
      {
        "astId": 76,
        "contract": "contracts/FundMe.sol:FundMe",
        "label": "lockTime",
        "offset": 0,
        "slot": "4",
        "type": "t_uint256"
      },
      {
        "astId": 78,
        "contract": "contracts/FundMe.sol:FundMe",
        "label": "erc20Addr",
        "offset": 0,
        "slot": "5",
        "type": "t_address"
      },
      {
        "astId": 81,
        "contract": "contracts/FundMe.sol:FundMe",
        "label": "getFundSuccess",
        "offset": 20,
        "slot": "5",
        "type": "t_bool"
      }
    ],
    "types": {
      "t_address": {
        "encoding": "inplace",
        "label": "address",
        "numberOfBytes": "20"
      },
      "t_bool": {
        "encoding": "inplace",
        "label": "bool",
        "numberOfBytes": "1"
      },
      "t_contract(AggregatorV3Interface)45": {
        "encoding": "inplace",
        "label": "contract AggregatorV3Interface",
        "numberOfBytes": "20"
      },
      "t_mapping(t_address,t_uint256)": {
        "encoding": "mapping",
        "key": "t_address",
        "label": "mapping(address => uint256)",
        "numberOfBytes": "32",
        "value": "t_uint256"
      },
      "t_uint256": {
        "encoding": "inplace",
        "label": "uint256",
        "numberOfBytes": "32"
      }
    }
  }
}